:020000040800F2
:10000000600500209D0100085B3100080B250008F9
:1000100059310008210500081D36000800000000C5
:100020000000000000000000000000006B35000828
:100030002D060008000000005D3100086D35000845
:10004000B7010008B7010008B7010008B7010008B0
:10005000B7010008B70100082F06000835060008A0
:100060003B06000841060008B7010008B701000878
:10007000B7010008B7010008B7010008B701000880
:10008000B7010008B7010008B7010008B701000870
:10009000B7010008B7010008B701000847060008CB
:1000A000B7010008B7010008B7010008B701000850
:1000B000B7010008B7010008B701000819250008BA
:1000C0000D250008B7010008B7010008B7010008B6
:1000D000B7010008B7010008B7010008B701000820
:1000E000B701000811340008B7010008B701000883
:1000F000B7010008B7010008B7010008B701000800
:10010000B7010008B7010008B7010008B7010008EF
:10011000B7010008B7010008B7010008B7010008DF
:10012000B7010008B7010008B7010008B7010008CF
:10013000B7010008B7010008B7010008B7010008BF
:10014000B7010008B7010008B7010008B7010008AF
:10015000B7010008B7010008B7010008B70100089F
:10016000B7010008B7010008B7010008B70100088F
:10017000B7010008B7010008B7010008000000003F
:10018000B7010008B7010008DFF80CD000F040F814
:1001900000480047E13F000860050020064880470E
:1001A00006480047FEE7FEE7FEE7FEE7FEE7FEE75C
:1001B000FEE7FEE7FEE7FEE7D93500088901000803
:1001C000D2B201E000F8012B491EFBD27047002299
:1001D000F6E710B513460A4604461946FFF7F0FF46
:1001E000204610BD30B50B460146002020220124D8
:1001F00009E021FA02F59D4205D303FA02F5491BF5
:1002000004FA02F52844151EA2F10102F1DC30BD0A
:10021000064C074D06E0E06840F0010394E8070053
:1002200098471034AC42F6D3FFF7B2FFE042000823
:100230000043000870B5094D094E002435F814102C
:1002400056F8240000F061FC012805D0641CE4B2DB
:10025000052CF3D3052070BD204670BD4E4200082A
:10026000240000202DE9F04F002487B00646254DDC
:10027000DFF894A003274FF00209DFF8908012E026
:100280008CB1032C0FD0012C0DD0022C0BD0042CE0
:1002900009D000BF38F81400CDE9029700905EB194
:1002A000012E11D025E0E86C40F00100E864E86C14
:1002B00000F001000590EDE7002001905AF82400BD
:1002C000694600F0EFFA14E0114801905AF8240052
:1002D000694600F0E7FADFF834B00022ABF1060B14
:1002E0000F211BF9040001F0A3F81BF9040001F031
:1002F00092F8641CE4B2052CC2D307B0002000F0D1
:1003000009B8000000100240240000204E420008FE
:100310000000211030BCBDE8C08F0000014800F093
:1003200027BF00001001002010B503F079F9BDE8E7
:100330001040014800F0DBBF1001002070B50546F9
:10034000002408E0002223461146284603F068F9FD
:10035000641CE4B26D1C287808B1052CF2D9BDE804
:100360007040014800F0C3BF10010020114810B5D3
:100370000F49016000214FF47012C0E901120C22F4
:10038000C2604FF4A05340228361C0E90421C0E958
:10039000071212024162C0E90A12016302F06EFD07
:1003A000044800F023FFBDE81040024800F0E0BE22
:1003B00000240040100100202DE9FC5F0025324F91
:1003C0000095019593468946AA463D7000284DD078
:1003D000014602E06D1CEDB2491C0A78002AF9D1F1
:1003E00004466846FFF7AAFF584600F059F9002670
:1003F00047E0002041E0411CB1FBF5F2884605FBD7
:100400001211615C8DF80010811CB1FBF5F205FB47
:100410001211615C8DF80110C11CB1FBF5F205FBF6
:100420001211615C8DF80210011DB1FBF5F205FBA4
:100430001211615C8DF80310411DB1FBF5F205FB53
:100440001211801D615C8DF80410B0FBF5F105FB05
:100450001100205C8DF805000C4800F089FE68460C
:10046000FFF76CFF387818B187F800A000F010B8DB
:10047000584600F015F908F0FF00A842BBD3761CDF
:10048000F6B24E45B5D3F1E7380000201001002048
:100490003CBCBDE8C09F000030B50400174887B0E1
:1004A00002D0012C08D00FE0C16C41F00201C16400
:1004B000C06C00F0020006E0C16C41F01001C164A4
:1004C000C06C00F0100005900D480E4D694630F8E4
:1004D000140000900120019000200290032003905E
:1004E00055F8240000F0DEF90098002281B255F89A
:1004F000240000F017FB07B030BD000000100240E0
:10050000444200081C0000200349044A31F810103E
:1005100052F8200000F0FEBA444200081C000020FF
:10052000FEE7000070B5002300781C46342817D081
:100530000FDCA0F12005142D24D2DFE805F03523CF
:100540002323235623233B3D384E234B23511111A4
:100550001111642832D009DCA0F13505042D11D821
:10056000304B03EB400030F8603C1DE0B02839D040
:1005700004DC6D2825D06E2804D125E0B52826D0CE
:10058000FF2835D0274DA0F14106343D1A2E03D265
:1005900005EB400333F8823CA0F161061A2E03D22A
:1005A00005EB400030F8C23C012924D025E04AF296
:1005B000DD03F9E72823F7E71123F5E74FF4734349
:1005C000F2E74BF21023EFE742F21023ECE746F29A
:1005D0008403E9E74FF42043E6E74AF21403E3E734
:1005E000C023E1E74FF46C43DEE74FF43343DBE72E
:1005F0004FF6DD73D8E743F00203012A01D143F03F
:10060000200309490C2000BF23FA00F202F00F0278
:1006100041F82420001F641CE4B2C0B2042CF3D3C0
:1006200070BD00008C4200084C0100207047012082
:1006300000F02CB9022000F029B9042000F026B9FE
:10064000082000F023B9202000F020B910B590F860
:1006500025100024022903D00421C16301241AE0DB
:1006600001680A6822F00E020A6001680A6822F036
:1006700001020A6090F84410036C01F01C02012191
:1006800001FA02F25A6080F82510002180F8241047
:10069000816B01B18847204610BD90F82500704756
:1006A00070B5044600F044FA0546601C02D00448C8
:1006B0000078044400F03CFA401BA042FAD370BD1D
:1006C0003C0000202DE9F84F00230126DFF834C15B
:1006D0000F2791E006FA03F414EA01027ED023F01A
:1006E00003056544AA46D5F808909D074FEA157E94
:1006F00007FA0EF505EA090B0095B0F1904F05D009
:10070000414DA84205D14FF0010822E04FF000080A
:100710001FE03E4DA84202D14FF0020819E03C4DC7
:10072000A84202D14FF0030813E03A4DA84202D18B
:100730004FF004080DE0384DA84202D14FF00508F3
:1007400007E0364DA84202D14FF0060801E04FF015
:10075000070808FA0EF8D84524D1DFF8C480D8F885
:10076000009029EA0209C8F8009008F10408D8F8B6
:10077000009029EA0209C8F8009008F10408D8F8A6
:10078000009029EA0209C8F8009008F10408D8F896
:1007900000509543C8F80050009ADAF80850954385
:1007A000CAF80850D0F800804FEA4309032202FA41
:1007B00009F248EA0208C0F80080DD0800EB850570
:1007C000AA46D5F820804FEA43794FEAD96907FA5B
:1007D00009F528EA0508CAF8208000E00BE08568E2
:1007E000954385604568A5434560C5689543C560E8
:1007F000C26AA243C2625B1C31FA03F27FF46AAFA1
:1008000000F010B800000140000400480008004853
:10081000000C004800100048001400480018004870
:100820000004014018BCBDE8E08F000010B5164C74
:100830000128217808D0002202280FD0042802D1F4
:10084000F1B102291AD010BD21B10229FBD101203A
:10085000A06010BD00F06CF9606010BD61B10429AA
:100860000CD00229F9D160780721401CB0FBF1F2CD
:1008700001FB1200607010BD042002E0227010BD68
:100880000220207010BD000000000020044910B5B7
:100890000A68024202D00860FFF7C8FF10BD0000DE
:1008A000140401402DE9F04FDFF83492002309F1E0
:1008B000040A012403250AF1040B87B00F270BF16A
:1008C000040E04E104FA03F632407CD0D1F804C0EF
:1008D000BCF1010F08D0BCF1020F05D0BCF1110F23
:1008E00002D0BCF1120F29D1D0F808C0CDF800C059
:1008F0004FEA430C05FA0CF8CDF80CC0DDF800C047
:100900002CEA080CCDF800C0D1F80C80DDF80CC042
:1009100008FA0CF8DDF800C048EA0C08C0F80880B6
:10092000D0F8048091F804C028EA0608CCF3001C33
:100930000CFA03FC4CEA080CC0F804C0D1F804809F
:100940006FEA080C5FEA8C7C09D1D0F82CC02CEA45
:10095000060CC8F3C0069E4046EA0C06C662D0F8F4
:100960000CC04FEA430805FA08F62CEA060CCDF84D
:10097000148002968E6806FA08F646EA0C06C660EF
:100980004E68022E01D0122E15D1DE0800EB86062D
:100990000396366A4FEA437C4FEADC6807FA08FCA4
:1009A00026EA0C06D1F810C00CFA08FC4CEA060C3A
:1009B000039EC6F820C00668DDF808C026EA0C06CB
:1009C00091F804C000E081E0DDF814800CF0030C25
:1009D0000CFA08FC4CEA060CC0F800C04E68F600A1
:1009E00074D5404ED6F860C04CF0010CC6F860C01B
:1009F000366E23F0030C06F0010600963A4E66446C
:100A00000296D6F808C09E074FEA167807FA08F64D
:100A10002CEA060CB0F1904F04D0344EB04203D112
:100A200001261BE0002619E0314EB04201D102261A
:100A300014E0304EB04201D103260FE02E4EB042FA
:100A400001D104260AE02D4EB04201D1052605E071
:100A50002B4EB04201D1062600E0072606FA08F622
:100A600046EA0C06DDF808C0CCF80860D9F800604A
:100A7000CC46D1F8048096435FEAC83800D51643C7
:100A8000CCF80060DAF80060D446D1F804809643D0
:100A90005FEA883800D51643CCF80060DBF80060C8
:100AA000DC46D1F8048096435FEAC82800D5164397
:100AB000CCF80060DEF80060F446D1F8048096437C
:100AC0005FEA882800D51643CCF800605B1C0A68F2
:100AD00032FA03F67FF4F6AE07B000F013B8000068
:100AE00000040140001002400000014000040048E2
:100AF00000080048000C004800100048001400489E
:100B00000018004830BCBDE8C08F0069084000D024
:100B100001207047426921EA02030A4043EA024188
:100B2000816170470AB1816170478162704700003E
:100B300001488068704700003C00002090F8412088
:100B4000202A24D190F84020012A20D0012280F8C8
:100B50004020242280F841200268136823F001031A
:100B600013600268136823F48053136002681368EB
:100B70000B43136001680A6842F001020A602021F9
:100B800080F84110002180F840100846704702208C
:100B9000704790F84120202A22D190F84020012A65
:100BA0001ED0012280F84020242280F841200268D3
:100BB000136823F0010313600268136823F4706361
:100BC00043EA0121116001680A6842F001020A60EB
:100BD000202180F84110002180F84010084670471D
:100BE000022070477047704710B5040013D02420CE
:100BF00084F841002068016821F00101016020466D
:100C000000F010FA0020606484F8410044F8300FCE
:100C1000A074207410BD012010BD30B403689A691F
:100C20001968D243D40509D4CC43240606D4446CB5
:100C300044F0010444644FF48074DC6153050AD429
:100C4000CB431B0607D4436C43F00803436404689A
:100C50004FF48063E36192050AD4C943090607D4BF
:100C6000416C41F00201416402684FF40071D161AE
:100C7000416C11F00B0F02D030BC01F02DBD30BC27
:100C80007047026891691268436B002B00D01847C7
:100C90007047704790F841007047000070B504003D
:100CA00004D094F84100002510B106E0012070BD89
:100CB00084F84050204600F0D7F9242084F8410001
:100CC0002068016821F0010101606068216820F05E
:100CD000706008612068816821F400418160E068EB
:100CE0000128A06807D040F4044021688860E068CB
:100CF000022803D006E040F40040F6E721684FF4F4
:100D00000060486020684168114A114341602068D2
:100D1000C16821F40041C160D4E904010843A1691C
:100D200040EA01202168C860D4E90701084321682E
:100D300008602068016841F00101016065642020BD
:100D400084F84100256384F84250002070BD000003
:100D500000800002704700002DE9FF4F83B0044679
:100D6000DDE9108790F84100DDF848909A469346F7
:100D7000202874D15FEA080014D09FB194F8400095
:100D800001286CD0012084F84000FFF7D1FE064610
:100D9000012200901923D103204601F0F4FF00281E
:100DA00071D103E04FF4007060646CE0222084F89D
:100DB0004100402084F8420000256564C4F8248086
:100DC00067856563CDE9009653465A4620460499E7
:100DD00001F0BAFE10B184F8405054E0618D3548FE
:100DE000FF274FF080784FF0007AFF2904D927853C
:100DF0003A464346009005E0618D2185009094F8C5
:100E0000282053462046049901F092FF4B460022C9
:100E100004212046009601F0B6FFA0BB2068406A7E
:100E2000616A0870606A401C6062208D401E81B259
:100E30002185608D401E6085608DD8B1D1B94B464B
:100E4000002280212046009601F09DFFD8B9608DD8
:100E5000FF2805D927853A464346009506E026E057
:100E6000608D2085009594F82820534620460499EB
:100E700001F05EFF608D0028C8D132464946204609
:100E800001F0ADFF18B1012007B000F017B82168DC
:100E90002020C86121684A68074B1A404A6084F8DC
:100EA000410084F8425084F840500020ECE70220D2
:100EB000EAE700000024008000E800FE30BCBDE846
:100EC000C08F00002DE9FF4F83B00446DDE9108795
:100ED00090F84100DDF848909A469346202871D159
:100EE0005FEA080014D09FB194F84000012869D04F
:100EF000012084F84000FFF71BFE06460122009007
:100F00001923D103204601F03EFF00286ED103E0F3
:100F10004FF40070606469E0212084F841004020B3
:100F200084F8420000256564C4F824806785656301
:100F3000CDE9009653465A462046049901F036FE04
:100F400010B184F8405051E0608DFF274FF0807859
:100F50004FF0007AFF2804D927853A46434600958A
:100F600005E0608D2085009594F8282053462046A2
:100F7000049901F0DDFE32464946204601F055FF56
:100F8000A0BB606A216800788862606A401C606269
:100F9000608D401E6085208D401E80B22085618D51
:100FA000D9B1D0B94B46002280212046009601F0ED
:100FB000EAFED8B9608DFF2805D927853A46434611
:100FC000009506E026E0608D2085009594F82820A5
:100FD00053462046049901F0ABFE608D0028CAD12B
:100FE00032464946204601F0FAFE18B1012007B00A
:100FF00000F014B820682021C16120684268064BC7
:101000001A40426084F8411084F8425084F84050FD
:101010000020ECE70220EAE700E800FE30BCBDE873
:10102000C08F000010B500680C49884215D10C48EB
:10103000816D21F4001181650A4C40212046FFF7A3
:1010400041FB80212046FFF73DFB1F2000F0D2F935
:10105000BDE81040202000F0CDB910BD0054004084
:10106000001002400004004810B586B00446142168
:101070006846FFF7ACF81A49206888422ED1194C0F
:10108000E06C40F00200E064E06C694600F00200B1
:101090000590C020009012200190012002900320B2
:1010A0000390042004901048FFF7FCFBA06D40F46F
:1010B0000010A065A06D002200F4001005901146FC
:1010C0001F2000F0B5F91F2000F0A5F900221146FD
:1010D000202000F0ADF9202000F09DF906B010BDF1
:1010E0000054004000100240000400487047704760
:1010F0000248816802781144816070473C000020FA
:10110000094810B50168002441F480710160032092
:1011100000F0AEF9002000F009F808B1012401E068
:1011200000F052F9204610BD0020024070B50E4E6E
:1011300005460024307898B14FF47A71B1FBF0F095
:101140000A490968B1FBF0F001F0CBF940B9102D64
:1011500006D200222946501E00F06AF9756000E0B0
:101160000124204670BD00003C0000204800002003
:101170002DE9F041044690F835000121012801D005
:10118000022830D194F8340001280CD0012084F8D2
:101190003400022784F83570FFF7CAFC06464FF486
:1011A0007A7800250CE00220BDE8F081FFF7C0FC52
:1011B000801B404504D9A76384F834500320F3E72B
:1011C00020688068C0434007F0D500205FF014011C
:1011D000226801EB8003D550401C0F28F8D9204627
:1011E00000F085F801460846DEE700002DE9F041F1
:1011F000040004D094F83500002518B107E0012060
:10120000BDE8F08184F83450204600F06FF80220E9
:1012100084F835002068016821F001010160002098
:101220005FF01401226801EB8003D550401C0F28A9
:10123000F8D92068816841F004018160D4E9010196
:101240000843D4E90A1211430843E1690843216ABB
:101250000843A1690843616A084321684A68224B30
:101260001A4010434860204601F08CFE0600C7D1AA
:10127000D4E903010843226B6169114308432168E3
:101280000A6822F0FE02104308602068016841F0FD
:1012900001010160FFF74CFC07464FF47A7806E045
:1012A000FFF746FCC01B404501D908200EE020682E
:1012B0008068C043C007F3D1FFF73AFC074608E057
:1012C000FFF736FCC01B404503D91020A063032064
:1012D00096E720688068C043C006F1D4A56301206A
:1012E00084F8350030468BE70E0000FC70472DE98E
:1012F000F041044608202168C8602068816841F0F8
:1013000004018160FFF714FC054600264FF47A774C
:101310000BE0FFF70DFC401BB84206D90420A06388
:1013200084F834600320BDE8F08120688068C04301
:101330000007EED4012084F8350084F834600020E2
:10134000F1E700002DE9F047044690F835009A4691
:1013500090468946012804D0022802D00120BDE829
:10136000F08794F83500012822D194F83400012840
:101370000BD0012084F83400022684F83560FFF792
:10138000D7FB05464FF47A770DE00220E7E700BF70
:10139000FFF7CEFB401BB84205D9A663002084F8B6
:1013A00034000320DBE720688068C0434007EFD5A6
:1013B0001421226801EB8900115801EA080141EA71
:1013C0000A0111500020CAE7094808B5016E41F032
:1013D00001010166016E01F001010091816D41F092
:1013E00080518165806D00F08050009008BD000044
:1013F0000010024000280DDB00F01F020121914087
:101400004009800000F1E020C0F88011BFF34F8F49
:10141000BFF36F8F7047002809DB00F01F02012126
:1014200091404009800000F1E020C0F800117047B1
:10143000F0B40E4B1B680C46C3F30223C3F107053F
:10144000042D00D90425191D072901D2002300E02D
:10145000DB1E012606FA05F1491E214099409E40F7
:10146000761E16403143F0BC02F06EBB0CED00E07E
:10147000064900F0070208684FF6FF03184040EAEB
:101480000220034A10430860704700000CED00E0A2
:101490000000FA051649B0F5007F0868C0F3412046
:1014A00009D0022805D0086820F4C06040F48060AC
:1014B0000860002070470128FBD0086820F4C06055
:1014C00040F4007008600B483222006850430A4A1A
:1014D000B0FBF2F0401C00E0401E4A69520501D505
:1014E0000028F9D148694005E3D503207047000082
:1014F000007000404800002040420F000248416850
:1015000041F400714160704700700040024800687B
:1015100000F4C06070470000007000402DE9F84FF3
:10152000044600270088E54D3E46010504F1200BE6
:101530001DD5606E78B1B0F5800F11D0B0F5000FF9
:1015400004D0B0F5400F22D001270FE0E86840F446
:101550008030E8601BE00021201D01F001FE03E067
:101560000021584601F092FE070010D03E46208828
:10157000C00426D5A06EC0B1B0F1807F1AD0B0F102
:10158000007F0DD0B0F1407F19D0012718E0D5F8C9
:101590008800616E20F440000843C5F88800E6E743
:1015A000E86840F48030E86009E00021201D01F087
:1015B000D7FD03E00021584601F068FE0746F7B169
:1015C0003E46206880033AD5A86D4FF00008C00061
:1015D00009D4A86D40F08050A865A86D4FF00108AF
:1015E00000F080500090DFF8D8A2DAF8001041F443
:1015F0008071CAF80010FFF79BFA814610E0D5F819
:101600008800A16E20F040700843C5F88800D8E734
:10161000FFF78EFAA0EB0900022801D9032705E0A5
:10162000DAF80000C005F3D5002F7CD04FEA07069A
:10163000B8F1000F03D0A86D20F08050A865207885
:10164000C00707D0D5F88800A16B20F0030008433D
:10165000C5F888002078800707D5D5F88800E16BA9
:1016600020F00C000843C5F888002078400707D513
:10167000D5F88800216C20F030000843C5F88800B8
:101680002078000707D5D5F88800616C20F0C000ED
:101690000843C5F888002078C00607D5D5F888002B
:1016A000A16C20F440700843C5F8880020788006BB
:1016B00007D5D5F88800E16C20F440600843C5F8F0
:1016C00088002088800507D5D5F88800E16D20F4D2
:1016D00040200843C5F888002088400507D5D5F884
:1016E0008800216E20F440100843C5F88800207857
:1016F000400607D5D5F88800216D20F440500843F6
:10170000C5F888002078000607D5D5F88800616DF7
:1017100020F440400843C5F888002088C00509D55A
:10172000D5F8880000E01CE0A16D20F440300843AB
:10173000C5F8880020884FF0006780044FF080686B
:101740004FD5D5F88800E16E20F040600843C5F819
:101750008800E06EB8423CD1E86840F48010E86050
:101760003FE0D5F8900010F4407015D0D4F8841004
:10177000814211D0D5F89000D5F8901020F4407037
:1017800041F48031C5F89010D5F8901021F48031E3
:10179000C5F89010C5F89000C00710D0FFF7C8F941
:1017A000074641F2883906E0FFF7C2F9C11B4945F7
:1017B00001D903263CE7D5F890008007F4D5D5F889
:1017C0009000D4F8841020F440700843C5F89000CD
:1017D0002EE7404505D10121201D01F0C1FC00B1DB
:1017E00006462068000317D5D5F88800216F20F041
:1017F00040600843C5F88800206FB84204D1E8680B
:1018000040F48010E86007E0404505D10121201D2B
:1018100001F0A6FC00B106462068400317D5D5F8B4
:101820008800616F20F040600843C5F88800606F51
:10183000B84204D1E86840F48010E86007E0404511
:1018400005D10121201D01F08BFC00B10646208846
:1018500040041AD5D5F88800A16F20F04050084305
:10186000C5F88800A06FB0F1805F03D0B0F1005FD1
:1018700005D00AE00221201D01F072FC03E00221E4
:10188000584601F003FD00B106462088000407D544
:10189000D5F88800E16F20F080400843C5F8880043
:1018A0002068C00307D555F8880FD4F8801020F0C1
:1018B000004008432860304600F004B800100240A1
:1018C0000070004018BCBDE8E08F00002DE9F04733
:1018D0000F46050058D0404E306800F00700B8426F
:1018E00009D2306820F0070038433060306800F0DB
:1018F0000700B84248D12878384CC0072CD0686817
:10190000032811D0022812D0216898B14905002976
:101910003ADAA16821F003010143A160FFF708F959
:10192000804641F2883910E021688901EFE721689B
:101930008903ECE78907EAE7FFF7FAF8A0EB08016B
:10194000494502D90320BDE8F087A068696800F026
:101950000C00B0EB810FEFD12878800705D5A06887
:10196000A96820F0F0000843A060306800F007008C
:10197000B8420BD9306820F0070038433060306837
:1019800000F00700B84201D00120DCE728784007CA
:1019900005D5A068E96820F4E0600843A0602878D5
:1019A000000706D5A068296920F4605040EAC1000C
:1019B000A06000F01BF8A168094AC1F30311515C53
:1019C00001F01F01C8400749086007480068BDE8EA
:1019D000F047FFF7ABBB00000020024000100240C0
:1019E000A0420008480000204000002070B52549B2
:1019F000002318468A68CC6812F00C0204F0030633
:101A0000214C4FEA640509D00C2A05D0042A32D0B3
:101A1000082A00D1284670BD012E10D10B681B0783
:101A200004D4D1F89430C3F3032302E00B68C3F36A
:101A30000313164E56F82330DAB10C2AEBD1C868DE
:101A400000F00300022818D0032818D01846CA68EE
:101A5000CB68C2F30212C3F306234343521CB3FB09
:101A6000F2F2C868C0F34160401C4000B2FBF0F0E5
:101A700070BD184670BD204670BD2046E7E7284679
:101A8000E5E70000001002400024F400B042000826
:101A90002DE9F84304006FD0FE4DA86800F00C0655
:101AA000E86800F003072078C00664D576B10C2EF4
:101AB00001D1012F0AD0A069002828687AD040F00F
:101AC00001002860FFF734F880465DE02868800751
:101AD00002D5A0690028DED0216A2868000703D556
:101AE000286800F0F00004E0D5F89400F02202EA43
:101AF0001010814216D9084601F04CFC00283BD159
:101B0000286840F0080028602868216A20F0F0006A
:101B1000084328606868E16920F47F4040EA0120BA
:101B2000686016E0286840F0080028602868216A8C
:101B300020F0F000084328606868E16920F47F40E5
:101B400040EA0120686026B9206A01F023FC0028E1
:101B5000D5D1FFF74BFFA968CF4AC1F30311515C00
:101B600001F01F01C840CD490860CD480068FFF76B
:101B7000DDFA00287ED12EE0CAE000BFFEF7D8FFD4
:101B8000A0EB0800022876D828688007F6D52868D8
:101B900040F0080028602868216A20F0F00008431F
:101BA00028606868E16920F47F4040EA01206860AD
:101BB00011E0FFE720F001002860FEF7B9FF804642
:101BC00006E000BFFEF7B4FFA0EB08000228DAD859
:101BD00028688007F6D42078C00740D0082E18D097
:101BE0000C2E01D1032F14D06068B0F5803F17D0C0
:101BF000B0F5A02F286817D020F48030286028681E
:101C000020F4802028606068E0B1FEF791FF8046F4
:101C100014E02868800322D56068002878D01EE090
:101C2000286840F48030EDE740F480202860F7E732
:101C3000FEF77EFFA0EB08006428A4D82868800384
:101C4000F6D50CE0FEF774FF804605E0FEF770FF66
:101C5000A0EB0800642896D828688003F6D4207882
:101C600080073BD5042E11D00C2E01D1022F0DD0B0
:101C7000E06801E092E1F1E0002828681ED040F41D
:101C800080702860FEF754FF07460CE02868400586
:101C90000CD5E0680028C1D008E000BFFEF748FF7F
:101CA000C01B022893D828684005F7D56868217CB6
:101CB00020F0F85040EA016068600FE020F4807086
:101CC0002860FEF735FF074605E000BFFEF730FF4E
:101CD000C01B0228B1D828684005F7D42078000737
:101CE00029D560690028D5F8940012D040F0010091
:101CF000C5F89400FEF71CFF074604E0FEF718FF46
:101D0000C01B022899D8D5F894008007F6D512E0B8
:101D100000E120F00100C5F89400FEF709FF074636
:101D200005E000BFFEF704FFC01B022885D8D5F8E8
:101D300094008007F6D42078400766D5A86D002768
:101D4000C00008D4A86D40F08050A865A86D012798
:101D500000F08050009053480168C90512D4016812
:101D6000814641F480710160FEF7E2FE804605E0A5
:101D7000FEF7DEFEA0EB080002286FD8D9F80000BD
:101D8000C005F5D5A068012816D00528D5F8900023
:101D900017D020F00100C5F89000D5F8900020F091
:101DA000040000BFC5F89000A06841F28839C0B1B6
:101DB000FEF7BEFE80460FE0D5F8900040F001002F
:101DC000F0E740F00400C5F89000F5E7FEF7B0FE3C
:101DD000A0EB0801494541D8D5F890008007F5D51A
:101DE0000EE0FEF7A5FE804606E000BFFEF7A0FE6F
:101DF000A0EB0801494531D8D5F890008007F5D40B
:101E00001FB1A86D20F08050A865A06A38B30228E1
:101E10000AD00C2E7ED0286820F0807028602868B8
:101E200010F0205F77D0AAE0E868E26A00F00301D2
:101E300091422BD1216B00F07002090110399142BF
:101E400024D1626B00F4FE41B1EB022F1ED1A26BD4
:101E500000F40031072A03D0012202E09DE089E06E
:101E60000022914212D1A18F00F4C0024908490515
:101E7000A1F50011914209D194F8401000F0C06022
:101E800049084906A1F1007181425CD00C2E41D075
:101E9000286809E000100240A04200084800002025
:101EA000400000200070004040017ED42868C0003F
:101EB0007BD4286820F080702860FEF739FE064643
:101EC00005E000BFFEF734FE801B022865D82868B5
:101ED0008001F7D4D4E90B016FF00F0202EB01117E
:101EE0000843A18F5204490802EB4151626B41EA59
:101EF0000221084394F840104FF07E42490802EB5B
:101F000041610843A16B090940EA4140E968284A58
:101F1000114001E049E02EE00843E860286840F005
:101F200080702860E86840F08070E860FEF700FE8E
:101F3000044604E0FEF7FCFD001B02282DD82868AB
:101F40008001F7D52FE0286880012CD4286840F064
:101F500080702860E86840F08070E860FEF7E8FD77
:101F6000044604E0FEF7E4FD001B022815D82868AB
:101F70008001F7D517E0E86820F00300E860E86822
:101F80000C490840E860FEF7D3FD044608E000BFB6
:101F9000FEF7CEFD001B022802D90320BDE8F8831E
:101FA00028688001F4D40020F8E70120F6E700005B
:101FB0008C809DF9FFFFEEFE7047000010B50446CF
:101FC0000020FEF7A1FA00220549204600F05AF849
:101FD0002046BDE810400022024900F031B8000060
:101FE000BC0000200C00002010B5144904464FF43A
:101FF0008020086020688168C9040BD5C168C905C4
:1020000008D5C16801F0800161F4C071C16020464B
:10201000FFF7D4FF2068816889040BD5C168890562
:1020200008D5C16801F0800161F42071C1602046CB
:10203000FFF7C2FF012084F8210010BD1404014005
:1020400010B500680B4641680D480140080CD87077
:10205000C1F304245C7001F03F049C70C1F3423171
:10206000197052B901F0DAF9D870587801F0D6F940
:102070005870987801F0D2F99870002010BD0000D7
:102080003FFFFF0010B50B460168896A596001687F
:102090000969C1F30E019960006801680D480140AB
:1020A000C1F305401870C1F306245C7001F07F0491
:1020B0009C70890DD97052B901F0B0F91870587838
:1020C00001F0ACF95870987801F0A8F998700020E8
:1020D00010BD00007F7F7F0010B504004FF00100AD
:1020E00044D094F8210028B9002084F8200020462C
:1020F00000F040F8022084F821002168CA204862DC
:10210000216853204862204601F09EF900282DD115
:1021100020688168164A1140816021688868626879
:10212000A369104322691A43104388602168E0685C
:10213000086120680169228941EA02410161204663
:1021400001F0A6F9002811D12168CA6C22F003021F
:10215000CA646269E16911432268D36C1943D1648E
:102160002268FF215162012184F8211010BD000076
:10217000BFFF8FFF10B50068094988420FD1094899
:1021800050F8901F41F400410160002211462920BF
:10219000FFF74EF9BDE810402920FFF73CB910BD0C
:1021A00000280040001002402DE9F05F044690F83E
:1021B00020000B46012844D0012084F82000022092
:1021C00084F821002068002680684FEA4060BAB396
:1021D000002800DBDE7098781978DA7840EA014050
:1021E0005978090241EA8251084393F8241040EAE1
:1021F0000165186A5F680543586921680543D86915
:102200000743CA204862216853204862986A4FF009
:10221000FF08B0F5807F20684FF0030B4FF47A7A07
:1022200081682BD021F4007181602068C16801F0C1
:10223000800161F42071C160FEF77AFC814652E0B2
:1022400002E0022000F078B8002800DBDE70187889
:1022500001F0EDF80504587801F0E9F845EA0025A9
:10226000987801F0E4F80543D87845EA805593F86A
:10227000240001F0DCF845EA0065BAE721F480713A
:1022800081602068C16801F0800161F4C071C160A3
:10229000FEF74EFC814605E0FEF74AFCA0EB090084
:1022A000504517D82068C068C007F5D02068C561C0
:1022B000206847642068816841F4807181602068EB
:1022C000816841F480511FE0FEF732FCA0EB090069
:1022D000504508D92168C1F8248084F821B084F8D9
:1022E00020600320AEE72068C0688007ECD5206836
:1022F0000562206887642068816841F4007181600C
:102300002068816841F4005181600A48016841F405
:102310008021016007480830016841F48021016094
:102320002168C1F82480012084F8210084F820600D
:10233000002087E70004014030BCBDE8C09F0000DA
:1023400070B5044690F820000B4601281BD00126EA
:1023500084F82060022084F82100B2B19878D978FE
:1023600040EA014558781978000240EA41300543B7
:102370002168CA204862216853204862204601F043
:1023800063F8D0B120E0022070BD5878C10603D5B3
:1023900000F0EF000A305870D87801F048F80504D2
:1023A000587801F044F845EA0025987801F03FF8A4
:1023B0000543187845EA4035DAE7084805402068C3
:1023C0004560204601F064F82268FF21516208B997
:1023D00084F82160002184F8201070BD3FFFFF00C9
:1023E0002DE9F041044690F8200090460D46012862
:1023F00011D0012784F82070022084F82100216880
:10240000CA204862216853204862204601F01CF827
:10241000002618B129E00220BDE8F0812068B8F15B
:10242000000F80684FEA406024D0002800DBEE7087
:10243000A8782978EA7840EA01406978090241EAF7
:102440008251084318490840216808602068816863
:1024500021F480218160D5E90301084321688A685D
:1024600010438860204601F013F82268FF21516272
:10247000A0B115E0002800DBEE70287800F0D7FF4F
:102480000304687800F0D3FF43EA0023A87800F043
:10249000CEFF0343E87843EA8050D3E784F8217005
:1024A00084F82060B8E700007F7F7F0070B50446A5
:1024B0000068C16821F0A001C160FEF739FB054644
:1024C0004FF47A7607E000BFFEF732FB401BB042C4
:1024D00001D9032070BD2068C0688006F4D50020B3
:1024E00070BD10B5401EB0F1807F01D3012010BD3A
:1024F0004FF0E02460610F21601701F025FB002000
:10250000A06107202061002010BDFEE70148FEF712
:1025100084BB00004C0000200148FEF7B2BB000065
:102520004C0000207FB5044600208DF80C0040F6DA
:10253000B835012303A88DE8290002232046FEF7C1
:102540000BFC10B1204600F066F89DF80C0004B0BA
:1025500070BD00003FB5054690F8410083B02028CB
:1025600002D0012007B030BD40F6B834012306A8E0
:102570008DE8190002232846FEF7A4FC084C2070C1
:1025800018B1284600F047F807E02846FEF782FB1E
:102590002028FAD10A20FEF783F82078E2E700002D
:1025A00010000020806A0021826B02B19163C26B2F
:1025B00002B1916300F0D2BB10B50022CC074FF0FE
:1025C000280306D090F84140422233EA040400D0A8
:1025D000F2228C0707D590F8414042F04402A34311
:1025E00001D042F0B0020B0401D542F0B80210292C
:1025F00004D0202905D0402906D007E042F09002FF
:1026000004E042F0200201E042F04002006801686C
:102610009143016010BD10B50446FEF7E5FA20466F
:10262000BDE8104000F0D6B901688A69D24392072C
:1026300001D400228A6200688169C943C90703D0B6
:10264000816941F00101816170472DE9F041044643
:1026500090F841002821814320684FF000054FF099
:10266000080304D0C36184F84050BDE8F08181695B
:10267000C1F300478169FE2202EA11468168C1F375
:102680000902C168D4F80CE001F0FE014FF4004CDF
:10269000BEF1020F17D14FF0060E06F006060EEA45
:1026A000D21E76450ED1A16C491CA164A16C0229F1
:1026B000DBD1A564C36184F8405039462046FEF75B
:1026C00092FAD2E70E4661462046FFF775FF84F87E
:1026D00040503246F1E7000070B5044690F84100E2
:1026E000002584F84250364AE2626585626C0A43EE
:1026F000626428281FD029281DD02A281BD048F220
:1027000003012046FFF758FF94F84100602802D0EB
:10271000202084F841006563206B2A4EA16B19B11B
:10272000112812D0212810D0E16BE9B3122824D04F
:10273000222822D03EE003212046FFF73DFF28203B
:1027400084F8410020486063E6E720680168490496
:1027500003D5016821F480410160A06BFDF79DFF66
:10276000012827D0A06B866384F84050A06BFDF74A
:102770006DFF002823D0A06B18E0206801680904D1
:1027800003D5016821F400410160E06BFDF785FF8E
:1027900001280FD0E06B866384F84050E06BFDF7B2
:1027A00055FF00280BD000E004E0E06B816BBDE832
:1027B000704008472046BDE8704000F0CFBA70BDB9
:1027C0000000FFFFA5250008112C000870B5044685
:1027D0001648E06200252563202084F8410084F833
:1027E0004250C8436563400711D42068406A616A5B
:1027F0000870606A401C6062208D40B1401E2085D8
:10280000608D401E6085606C40F00400606448F29A
:1028100003012046FFF7D0FE21681020C86184F82C
:1028200040502046FEF796FA70BD00000000FFFF02
:102830002DE9F04102680446156890F841000E4603
:102840002027D761212806D0292804D0222809D0A2
:102850002A2807D00DE048F201012046FFF7ACFE20
:10286000212005E048F202012046FFF7A5FE2220C4
:1028700020632068416841F400414160206841685C
:10288000354A114041602046FFF7CEFEE84341043F
:1028900006D42068016821F480410160A06B07E044
:1028A000000409D42068016821F400410160E06B54
:1028B00010B1006840686085F04340070FD420687D
:1028C00026F00406406A616A0870606A401C606213
:1028D000208D20B1401E2085608D401E6085608D5A
:1028E00018B1606C40F004006064002584F8425028
:1028F0006563606C68B1616C2046FFF7EDFE94F88B
:102900004100282815D131462046BDE8F041FFF7A7
:102910005DBFE06A114EB0420DD0204600F020F8B5
:10292000E66284F84170256384F840502046FEF743
:1029300011FABDE8F08194F8410084F84170222832
:10294000256384F84050204602D0FEF7D0FBF0E724
:10295000FEF7CCFBEDE7000000E800FE0000FFFF03
:1029600070B5044600680168002584F84250C943E8
:102970004A0403D4016821F4804104E0090403D42B
:10298000016821F40041016094F8411028202929B0
:1029900011D094F841102A290CD184F8410022204A
:1029A000206302212046FFF707FE84F840502046AE
:1029B000FEF79CFB70BD84F84100212020630121BB
:1029C0002046FFF7F9FD84F840502046FEF78FFBC4
:1029D00070BD000010B50446FEF75CF9002815D163
:1029E0000B4820600B48606000200121C4E902010F
:1029F00020616061E061206200F050F82046FEF73F
:102A00004DF900BF94F841002028FBD110BD000013
:102A100000540040262611902DE9F041044600683C
:102A200090460E468069C043C00633D40025202757
:102A300020688069C043800615D5701CF8D0FEF769
:102A400077F8A0EB0800B04201D8002EF0D154F87E
:102A5000440F40F0200044F804096770A570257009
:102A60000120BDE8F08121681020C8612068C7619D
:102A70002046FFF7D9FD54F8440B4168064A11403F
:102A80004160206840F0040044F820096777A5778A
:102A90002577E5E70020E4E700E800FE30B5284CA4
:102AA000A9B0A06D40F08050A065A06D00F08050EE
:102AB0002790FEF723FD4025A0140095149068464A
:102AC000FEF72CFDE06C40F00200E064E06C22A90F
:102AD00000F0020027901220CDE92250012024901E
:102AE000022025900420174D26902846FDF7DAFE97
:102AF0008020229022A92846FDF7D4FEA06D40F444
:102B00000010A065A06D00F400102790A06B40F4A9
:102B10000010A063A06B20F40010A063002201212C
:102B20001F20FEF785FC1F20FEF775FC0022012107
:102B30002020FEF77DFC2020FEF76DFC29B030BD83
:102B400000100240000400482DE9F84304461646F0
:102B5000DDE9089714489846DAB200900023204631
:102B600000F0E6F83A464946204600F05EF9B8B96A
:102B7000F5B2B8F1010F08D02168300A88623A46F0
:102B80004946204600F051F950B9206885624B460D
:102B9000002240212046009700F0F5F8002800D0E0
:102BA0000120BDE8F8830000002000802DE9F843F3
:102BB0000446164615489846DDE90897DAB2C3027E
:102BC0000090204600F0B4F83A464946204600F00E
:102BD0002CF9B8B9F5B2B8F1010F08D02168300A64
:102BE00088623A464946204600F01FF950B92068ED
:102BF00085624B46002280212046009700F0C3F8F2
:102C0000002800D00120BDE8F883000000200080EB
:102C10002DE9F041C56A044690F840008846012835
:102C200026D0012084F840006FEA0807B8066FEA52
:102C3000020605D4B00603D441462046FFF7F8FD4E
:102C40003A49F8064FF0807231D4F0062FD4638DE4
:102C5000102083B12168C861606C40F0040060649A
:102C60000DB195425ED1616C2046FFF735FD59E00C
:102C70000220BDE8F08194F84120282A02D1B5F164
:102C8000007F04D094F84120292A05D00CE0414669
:102C90002046FFF79BFD45E08D4205D02168C861C5
:102CA0002046FFF7C1FC3AE02168C8613AE07807A6
:102CB00015D4700713D4608D60B12068406A626AD1
:102CC0001070606A401C6062208D401E2085608DFF
:102CD000401E6085608D28BB8D4220D122E03807E0
:102CE00006D4300704D441462046FFF7AEFC19E075
:102CF000B80717D4B00715D4608D68B1606A216831
:102D000000788862606A401C6062608D401E608549
:102D1000208D401E208505E0954200D015B9204643
:102D2000FFF71EFE002084F84000A2E70000FFFF2E
:102D3000F0B50568059C68684FF48066064FC1F3DE
:102D4000090106EA545641EA02413E431943B043A1
:102D5000214308436860F0BDFF63FF0310B590F89E
:102D600041200021602A05D0016380F84010FDF762
:102D700090FF10BD202280F84120016380F84010B0
:102D8000FDF730FF10BD2DE9F0411D4617460E46F8
:102D90000446DDF8188008E0681C06D0FDF7C8FE80
:102DA000A0EB0800A8420BD855B12068806936EA2C
:102DB000000012D00020B842EED00020BDE8F08123
:102DC00054F8440F40F0200044F8040920206070BB
:102DD0000020A07020700120F0E70120EBE770B523
:102DE00016460D4604460DE0324629462046FFF7BA
:102DF00013FE08B1012070BDFDF79AFE801BA842AA
:102E000007D835B120688069C0438006ECD4002023
:102E100070BD54F8440F40F0200044F8040920200D
:102E200060700020A0702070E4E770B516460D4673
:102E300004460FE0324629462046FFF7EDFD08B173
:102E4000012070BD681C05D0FDF772FE801BA842F2
:102E500007D835B120688069C0438007EAD40020D4
:102E600070BD54F8440F40F0200044F804092020BD
:102E700060700020A0702070E2E7000030B5B9B0AB
:102E8000142122A8FDF7A3F9442127A8FDF79FF9F3
:102E900088216846FDF79BF9364CA06D40F08050C4
:102EA000A065A06D002500F0805038900420319579
:102EB00027900120299027A8FEF7EAFD00B1FEE740
:102EC0004FF400300090401221906846FEF726FB38
:102ED000E06C40F00100E064E06C00F0010038902C
:102EE000E06C40F00200E064E06C00F0020038901A
:102EF000E06C40F00400E064E06C00F00400389006
:102F0000E06C40F00800E064E06C22A900F00800EA
:102F1000389048F2C07022900220CDE923050320AA
:102F200025900B2026904FF09040FDF7BBFC4FF210
:102F30003320229022A91048FDF7B4FC4FF4FC7016
:102F4000229022A90D48FDF7ADFC4FF47F4022905E
:102F500022A90B48FDF7A6FC0220FDF7A1FBA06DFE
:102F600040F40070A065A06D00F40070389039B096
:102F700030BD000000100240000400480008004876
:102F8000000C004870B50446FDF7D2FD05464FF42D
:102F90007A7608E0FDF7CCFD401BB04203D9012052
:102FA000A063032070BD20688068C0438006F1D410
:102FB000002070BD30B587B014216846FDF707F9D1
:102FC0002748C16C41F00101C164C16C01F00101ED
:102FD0000591C16C41F00201C164C06C214C00F04C
:102FE000020005900120CDE9000400204FF090453B
:102FF000029069462846FDF755FC2E20CDE90004D5
:103000000220029069462846FDF74CFC0122114639
:103010000620FEF70DFA0620FEF7FDF90122114603
:103020000720FEF705FA0720FEF7F5F90122114601
:103030000820FEF7FDF90820FEF7EDF90122114600
:103040000920FEF7F5F90920FEF7E5F901221146FE
:103050001720FEF7EDF91720FEF7DDF907B030BDB8
:1030600000100240000011100E4810B50C4901601C
:1030700040F61461416000210122C0E902120161A1
:1030800041618161C1610162FDF708FE00210548CF
:10309000FDF754FDBDE8104000210248FDF779BD61
:1030A000005400404C00002010B592B014210BA831
:1030B000FDF78DF800242C2168461094FDF787F861
:1030C00024482349C0E900147F218160FF21C0E921
:1030D000031444618461C461FEF7FEFF0C208DF887
:1030E0002C008DF82D408DF82E400E9400220BA957
:1030F00018480F94FFF774F902208DF84000112052
:103100008DF841000A208DF8420014208DF843000C
:10311000002210A90F48FFF713F98DF800408DF831
:1031200001408DF802404FF08030CDE9044001208D
:103130008DF82400000203940A90019407940894E7
:10314000002269460348FFF72FF812B010BD0000B7
:103150000028004098000020FEE7704770470000FC
:103160002DE9F041444C05468846E0680026810779
:1031700028680DD0E16801F00301814216D1A8B1A1
:10318000E0686968C0F30210401C88420ED120E05C
:10319000012804D0022805D0032807D108E02168BF
:1031A000890701E021684905002907DB01265FE066
:1031B0002168890302D421684903F5E7E1686A6858
:1031C0006FF00F0321F0730103EB0212114301436F
:1031D000E160206820F080602060FDF7A9FC0746D0
:1031E00005E000BFFDF7A4FCC01B022837D820680B
:1031F0000001F7D4B8F1000F18D0B8F1010F1ED0BC
:10320000287D4FF07E41400801EB4060A96840EA0C
:1032100001202169194A114008432061206840F0CB
:1032200080602060FDF784FC07461AE0A868E96822
:103230000002090940EA41402169114AEBE7288A66
:103240001049400801EB4050A96840EA012021697B
:103250000D4AE0E7FDF76CFCC01B022801D90326EC
:1032600006E020680001F5D52069A96908432061BE
:103270003046BDE8F081000000100240FF80FFF9F9
:10328000FF80FDFF0000E0FFFF809FFF2DE9F04180
:103290003D4C06468846E0680025810730680DD021
:1032A000E16801F00301814216D1A8B1E0687168BC
:1032B000C0F30210401C88420ED120E0012804D047
:1032C000022805D0032807D108E02168890701E01A
:1032D00021684905002907DB012551E021688903A0
:1032E00002D421684903F5E7E16872686FF00F03C3
:1032F00021F0730103EB021211430143E1602068E6
:1033000020F080502060FDF713FC074605E000BF69
:10331000FDF70EFCC01B022829D820688000F7D4D6
:10332000B8F1000F15D0307C4FF07E41400801EB22
:103330004060B16840EA01206169144A11400843C5
:103340006061206840F080502060FDF7F1FB074687
:103350000FE0B068F1680002090940EA4140616984
:103360000B4AEBE7FDF7E4FBC01B022801D903255C
:1033700006E020688000F5D56069716908436061E6
:103380002846BDE8F081000000100240FF80FFF9F0
:10339000FF80FDFFF8B51C4D06460024A86DC00057
:1033A00002D5FEF7B3F80DE0A86D40F08050A86597
:1033B000A86D00F080500090FEF7A8F8A96D21F0EC
:1033C0008051A965B0F5007F04D0802E07D94FF059
:1033D00003040AE0802E08D9A02E01D804E001D110
:1033E000022402E0702E00D101240848016821F077
:1033F000070121430160006800F00700A04201D0EE
:103400000120F8BD0020F8BD00100240002002405D
:103410000148FEF7E9BD000098000020010901EB1A
:10342000810100F00F0000EB4100C0B270470022A4
:10343000014602E00A39C9B2521C0A29FAD2100721
:1034400041EA1060704700002DE9F0410446006831
:103450000025C168490617D4691EC160FDF768FBE5
:1034600006464FF47A78032708E000BFFDF760FBBB
:10347000801B404502D9032584F821702068C0686C
:10348000400601D4032DF1D12846BDE8F0810000AB
:103490002DE9F041064613480025016821F080011E
:1034A0000160041F20684FF00307800607D43046F0
:1034B000FEF7FCFF90B186F8217003250EE020682E
:1034C00020F0200020603046FEF7F0FF10B186F8B3
:1034D00021700325206840F0200020602846BDE8C8
:1034E000F08100000C2800402DE9FC471B4C62884D
:1034F000A0211B48FFF716F881466088A021401CD8
:1035000082B21748FFF70EF880466088A021801C21
:1035100082B21348FFF706F806466088A021C01C57
:1035200082B20F48FEF7FEFF05466088A021001D0D
:1035300082B20B48FEF7F6FF07466088A021401DC7
:1035400082B20748FEF7EEFFCDE900702B46324607
:103550004146484600F014FD00F004B80000002089
:103560004C0000200CBCBDE8F0877047FDF7C0BDE3
:1035700010B5B8B0442122A8FCF729FE142133A8C5
:10358000FCF725FE88216846FCF721FE18202290D2
:1035900001200024CDE92804279060202A902C9453
:1035A00022A8FEF775FA0F20CDE93304359436943E
:1035B000002133A83794FEF789F9064814940412C1
:1035C000009068462194FDF7A9FF2046FDF762FFB1
:1035D00038B010BD400002000D48016841F4700190
:1035E00001600C48016841F0010101600021816027
:1035F0000268094B1A4002608214C260026822F419
:103600008022026081610249C003803908607047EE
:1036100088ED00E000100240FFFFF6EAFEE7000040
:103620002DE9F0411D46FCF77DFFFE4C062D7DD2B5
:10363000DFE805F0034FA3F6F4F32078FA4DC10755
:10364000C90E00F0020241EA825100F0040241EA90
:10365000025300F008000343F2482A4600213C3898
:10366000FDF770FE2079C107C90E00F0020241EAA1
:10367000825100F0040241EA025300F008000343C3
:10368000E8482A4602213C38FDF75CFE207AC10753
:10369000C90E00F0020241EA825100F0040241EA40
:1036A000025300F008000343DE482A4604213C3858
:1036B000FDF748FE207BC107C90E00F0020241EA77
:1036C000825100F0040241EA025300F00800034373
:1036D00050E02078D54DC107490E00F0020241EAC2
:1036E000023100F0040241EA822100F0080041EAC0
:1036F0008003CC482A4600213C38FDF723FE207980
:10370000C107490E00F0020241EA023100F0040252
:1037100041EA822100F0080041EA8003C1482A46BC
:1037200002213C38FDF70EFE207A00E0A3E1C1073C
:10373000490E00F0020241EA023100F0040241EABF
:10374000822100F0080041EA8003B6482A4604219D
:103750003C38FDF7F7FD207BC107490E00F002025F
:1037600041EA023100F0040241EA822100F008003F
:1037700041EA80032A4606211DE12078AC4DC107AD
:10378000090C00F0020241EA027100F0040241EA71
:10379000826100F0080041EAC023A2482A460021C5
:1037A0003C38FDF7CFFD2079C107090C00F002027B
:1037B00041EA027100F0040241EA826100F008006F
:1037C00041EAC02397482A4602213C38FDF7BAFD5A
:1037D000207AC107090C00F0020241EA027100F0F0
:1037E000040241EA826100F0080041EAC0238D48EA
:1037F0002A4604213C38FDF7A5FD207BC107090CB2
:1038000000F0020241EA027100F0040241EA826122
:1038100000F0080041EAC023ACE7D2E05FE0FFE738
:1038200020786FF04045C10700F0080041EAC0630E
:103830007C482A4600213C38FDF784FD2078AE0004
:1038400000F00203C0F380000343764832460121B2
:103850003C38FDF777FD20792A46C10700F00800C3
:1038600041EAC0636F4802213C38FDF76BFD2079C7
:10387000324600F00203C0F380000343694803218D
:103880003C38FDF75FFD207A2A46C10700F00800AA
:1038900041EAC063634804213C38FDF753FD207AB8
:1038A000324600F00203C0F3800003435D48052167
:1038B0003C38FDF747FD207B2A46C10700F0080091
:1038C00041EAC063574806213C38FDF73BFD207BA9
:1038D000324600F00203C0F3800003436AE0207820
:1038E0006FF0407600F00201090600F0040041EAA2
:1038F00080534C48324600213C38FDF723FD2068B8
:10390000042505EA500100F0010041EAC0034548E2
:10391000B7153A4601213C38FDF714FD20793246AF
:1039200000F00201090600F0040041EA80533D481E
:1039300002213C38FDF706FD60683A4605EA500171
:1039400000F0010041EAC003364803213C38FDF78E
:10395000F9FC207A324600F00201090600F004006A
:1039600041EA80532F4804213C38FDF7EBFCA06866
:103970003A4605EA500100F0010041EAC003294837
:1039800005213C38FDF7DEFC207B324600F00201C9
:10399000090600F0040041EA8053224806213C3821
:1039A000FDF7D0FCE0683A4605EA500100F001005E
:1039B00041EAC0030721BDE8F0411A483C38FDF751
:1039C000C1BC20781B4DC107890B00F0020241EAFF
:1039D000C21100F0040241EAC21100F0080041EAFD
:1039E000C05310482A4600213C38FDF7ABFC207933
:1039F000C107890B00F0020241EAC21100F0040283
:103A000041EAC21100F0080041EAC05305482A46C5
:103A100002213C38FDF796FC207AC107890B00F0A3
:103A2000020209E04C010020E7FF3FFF9FCFFFFFAC
:103A3000FF3FFFCFFFFCFDFB41EAC21100F0040293
:103A400041EAC21100F0080041EAC0532A460421AD
:103A50000A48FDF777FC207BC107890B00F00202C2
:103A600041EAC21100F0040241EAC21100F008006C
:103A700041EAC0537EE6BDE8F0810000100100205D
:103A80002DE9F041244C6288A0212448FEF74AFD2C
:103A900080466088A021401C82B22048FEF742FD8B
:103AA00007466088A021801C82B21C48FEF73AFDC0
:103AB0001A4D628870350646AB78A0211748FEF78C
:103AC00049FD6B786088A021401C82B21348FEF744
:103AD00041FD2B786088A021801C82B20F48FEF740
:103AE00039FD60884346C01C82B2A0210B48FEF716
:103AF00031FD60883B46001D82B2A0210748FEF7D9
:103B000029FD60883346BDE8F041401D82B2A02106
:103B10000248FEF71FBD0000000000204C000020FE
:103B20000FB4084B10B504A902AA039800F02CF8B2
:103B3000044602A9002000F0CBF9204610BC5DF835
:103B400014FB0000D13E00080907090E002804DB21
:103B500000F1E02080F80014704700F00F0000F141
:103B6000E02080F8141D704702E008C8121F08C149
:103B7000002AFAD170477047002001E001C1121FEE
:103B8000002AFBD1704700002DE9FF4F8BB088461B
:103B90000546002606E025280BD0DDE90D129047EA
:103BA0006D1C761C28780028F5D10FB0304600F047
:103BB00063B90024A146A2460122AE4900E00443B5
:103BC00015F8013F203B02FA03F00842F7D12878AC
:103BD0002A2810D06FF02F022878A0F1300109298F
:103BE00015D809EB890102EB410144F0020400EB16
:103BF00001096D1CF0E758F8041B5FEA010903D5C1
:103C000044F40054C9F1000944F002046D1C287802
:103C10002E2817D115F8010F44F004042A280ED0DD
:103C20006FF02F022878A0F1300109290AD80AEB99
:103C30008A0102EB410100EB010A6D1CF2E758F822
:103C400004AB6D1C28786C280FD006DC4C2817D0EC
:103C500068280DD06A2814D104E0742810D07A287E
:103C60000FD10DE044F400140AE044F4801401E0A4
:103C700044F440146978814202D104F580146D1C2B
:103C80006D1C2878692865D006DC00288DD0632853
:103C900027D0642806D15DE06E2808D073282AD08A
:103CA000752877D0DDE90D129047761CE0E0C4F36B
:103CB0000250022809D003280DD0D8F8001004289B
:103CC0000DD00E6008F10408D2E0D8F80010F21709
:103CD000C1E90062F6E7D8F800100E80F2E70E7036
:103CE000F0E718F8041B8DF8001000208DF8010093
:103CF000EB46012003E058F804BB4FF0FF306107AA
:103D00004FF0000701D40AE07F1C57450DDA8742C7
:103D1000FADB1BF807100029F6D106E07F1C87426A
:103D2000FCDB1BF807100029F8D1DDE90D23A9EB16
:103D300007008146214600F0B4F83044C61904E07B
:103D4000DDE90D121BF8010B90477F1EF8D22146CA
:103D5000484688E058F8040BC4F302514FF00A0BB0
:103D6000032900D100B2042900D140B2002802DAB0
:103D700040422D2102E0210505D52B218DF824108C
:103D8000012104E006E0E10710D02021F6E708AFAA
:103D9000089113E058F8040BC4F302514FF00A0BDA
:103DA000032900D180B2042900D1C0B20021EEE77E
:103DB0005946FCF717FA303107F8011D0028F7D1F2
:103DC000ADEB070000F1200B600702D524F480342E
:103DD00001E04FF0010ADA4502DDAAEB0B0000E03A
:103DE0000020824600EB0B0108980144A9EB01007A
:103DF0000A90E00306D4DDE90D2321460A9800F07D
:103E000050F806444FF0000908E009A911F809002C
:103E1000DDE90D12904709F10109761C08998945E1
:103E2000F3DBE0030CD5DDE90D2321460A9800F011
:103E300038F8064404E0DDE90D1230209047761C86
:103E4000BAF10001AAF1010AF5DC05E0DDE90D1285
:103E500017F8010B9047761CBBF10001ABF1010B89
:103E6000F4DC0A982146DDE90D2300F008F8064449
:103E70006D1C97E60928010030BCBDE8C08F2DE914
:103E8000F041044600251E461746880404D405E088
:103E900039462020B0476D1C641EF9D52846BDE880
:103EA000F0812DE9F041044600251E469046C803E6
:103EB00001D5302700E02027880404D505E04146DD
:103EC0003846B0476D1C641EF9D52846BDE8F08120
:103ED0000A68531C0B6010707047000000B58BB06F
:103EE000C2B2C0F30741CDE90012C0F30723020EAE
:103EF00006A102A8FFF714FEFCF710FAC822012160
:103F000002A8FCF759FA0BB000BD00005945415218
:103F10002025303264204D4F4E54482025303264E5
:103F200020444154452025303264205745454B44B8
:103F300041592025303264003EB5C0F30741C0F33B
:103F40000723C2B200910AA101A8FFF7E9FD01A869
:103F5000FCF7F4F9012301AC1A460021601CFCF7C0
:103F6000E3F9032301220021E01CFCF7DDF93EBD4B
:103F70002530326425303264253032640000000080
:103F800030B58DB0DDE91045CDE90243CDE900053E
:103F90000B4607A104A8FFF7C3FDFCF7BFF94FF4D8
:103FA000C872012104A8FCF707FA0DB030BD00006B
:103FB00054494D453120202530326420253032646B
:103FC0002025303264202054494D453220202530B0
:103FD0003264202530326420253032640000000035
:103FE00008B5FDF78DF8FCF7C1F90120FCF73AF9A7
:103FF0000020FCF751FAFFF7BBFAFEF7DBFFFFF7F3
:1040000033F8FFF751F8DFF8F881DFF8F0914FF05F
:10401000FF364FF03C0A4FF47A770025A8F10C04E4
:104020006068002813DB207888B9FCF703F940B9F1
:10403000FCF77EFD6168401AB84202D90120666033
:1040400004E0FCF7F7F810B10320666020702078D8
:104050000528E5D2DFE800F0030C10C3CE00674866
:1040600010300068009065480FC8FFF765FFD7E77C
:10407000E068FFF733FFBFE060490022A1F12400B0
:10408000FEF700F85D4800225D492438FDF7D8FFAF
:104090006078072810D2DFE800F0040813171B1F10
:1040A000230099F8022057A102E099F8012057A1B6
:1040B00052481430FFF734FDA068012814D05AE0AC
:1040C00099F8002053A1F3E798F8002053A1EFE7F7
:1040D00098F8012053A1EBE798F8022053A1E7E7F5
:1040E00098F8032053A1E3E72078022843D1A56084
:1040F000607807282DD2DFE800F004121D45515DDD
:10410000660099F802103D48491CB1FBFAF30AFB1E
:10411000131289F802203BA11430FFF701FD99F832
:104120000110491CB1FBFAF30AFB131289F80120B4
:1041300036A10AE099F800101822491CB1FBF2F3ED
:1041400002FB131289F8002032A12C481430FFF72B
:10415000E7FCFCF7E3F829481430FCF7EFF82749AF
:104160000022A1F12400FEF73BF924480022244953
:104170002438FEF7E5F8FCF7D1F820481430FCF7B6
:10418000DDF84DE798F800100722491CB1FBF2F367
:1041900002FB131288F8002020A1D6E798F801103E
:1041A0000C22491CB1FBF2F302FB131288F8012028
:1041B0001CA1CAE798F802001CA1401C00F01F02D5
:1041C00088F80220C1E798F803106422491CB1FB6B
:1041D000F2F302FB131288F8032016A1B5E7FFF7EC
:1041E0004FFCFCF79BF815A0FCF7A8F83846FCF745
:1041F00057FA01E0FFF778F9257011E7BC000020BD
:104200000C00002053454320256400004D494E20FA
:10421000256400004852202564000000574B4420CC
:10422000256400004D4F4E20256400004454452075
:104230002564000059522025640000005341564572
:104240000000000004000001060708170900010033
:10425000020004002000080000FE1467001D14473F
:10426000009D009C003F00FA140000534198001983
:10427000485A095A005F00FC015F01FC00AF1404BA
:10428000005BC018815AC9005800C005005F004299
:1042900000F5006700EA00AF00BF004600FF00EF36
:1042A00000000000000000000102030406070809E6
:1042B000A0860100400D0300801A060000350C00A6
:1042C00040420F0080841E0000093D0000127A0069
:1042D0000024F40000366E010048E801006CDC02A6
:1042E00000430008000000204C000000683B00086C
:1042F0004C4300084C00002014050000783B0008E7
:1043000000000A00FFFFFFFF0000000000000000A7
:1043100000000000B80B0000B80B000000040048CB
:10432000001000480000004800000048000000485D
:1043300000000048000000480004000001000000E8
:0C434000100000000000000000093D001B
:040000050800018965
:00000001FF
